:020000040800F2
:10000000F81C0020BD010008C5010008C701000858
:10001000C9010008CB010008CD0100080000000064
:1000200000000000000000000000000001010008C6
:10003000D10100080000000091010008A1010008A2
:10004000D7010008D7010008D7010008D701000830
:10005000D7010008D7010008D7010008D701000820
:10006000D7010008D7010008D7010008D701000810
:10007000D7010008D7010008D7010008D701000800
:10008000D7010008D7010008D7010008D7010008F0
:10009000D7010008D7010008D7010008D7010008E0
:1000A000D7010008D7010008D7010008D7010008D0
:1000B000D7010008D7010008D7010008D7010008C0
:1000C000D7010008D7010008D7010008D7010008B0
:1000D000D7010008D7010008D7010008D7010008A0
:1000E000D7010008D7010008D7010008DFF80CD0BD
:1000F00000F08CF80048004799130008F81C002015
:100100001EF0040F0CBFEFF30880EFF30980816944
:1001100011F8021C00292DD101B590E80F10E0471D
:10012000BDE80050CCF80000214B93E80600914256
:1001300008BF70471A60A9B1ACF1200CC1F838C0F3
:1001400006B4084603F076FD06BC38B94FF001004E
:1001500002F072FC174B5A681A6003E0D1F838C0FD
:100160008CE8F00F906B6FF0020EB0E8F00F80F3A8
:1001700009887047104A13689942FAD801B552F8B5
:1001800021C00FC8E047BDE80050CCF80000704720
:1001900001B503F0F3F8BDE80140EFF3098CC3E7C4
:1001A00001B503F075FFBDE80140EFF3098CBBE733
:1001B0001C0000201C000020CCA900080648804735
:1001C00006480047FEE7FEE7FEE7FEE7FEE7FEE73C
:1001D000FEE7FEE7FEE7FEE715060008ED00000873
:1001E00030B50B46014600202022012409E021FA07
:1001F00002F59D4205D303FA02F5491B04FA02F504
:100200002844151EA2F10102F1DC30BD064C074D59
:1002100006E0E06840F0010394E8070098471034D6
:10022000AC42F6D3FFF766FF94AA0008B4AA000810
:1002300040EA01039B0703D009E008C9121F08C068
:10024000042AFAD203E011F8013B00F8013B521EE8
:10025000F9D27047D2B201E000F8012B491EFBD25F
:1002600070470022F6E710B513460A4604461946C1
:10027000FFF7F0FF204610BD2DE9F04F81B040F2AE
:100280008055C2F2000594462A78002A00F06B805F
:1002900040F200528E46C0F3C621C2F20002515C09
:1002A000C0F30222D1408246C90700F05C800A9860
:1002B00041F2040840F2EC0B9946CEF20008C2F27B
:1002C000000B05F11802009008E000BF52E8000F93
:1002D00042E8006404B1F9E783421AD0AB69D8F868
:1002E00000609E42F2D201275946D1E84F4FC1E843
:1002F000407F00B1F9E72006E8D12869594601306E
:1003000028610027D1E84F0FC1E8447F04B1F9E725
:10031000DCE7691CEFF30580D1E84F2F531CC1E8DF
:10032000443F04B1F8E74FF4E02101EA02445146AA
:10033000C0F20801002808BF1FFA8AF1081900F16D
:10034000807031467246634600F010F858B144F0B0
:10035000007040F0010031464A465DF8043BBDE8BC
:10036000F04F00F003B801B0BDE8F08F2DE9F04781
:100370004FF0805707EAD1074FF0005640F2805CFB
:1003800006EA92064FF080453843C2F2000C9246CE
:1003900005EA530530430CF1040252E8004F671C94
:1003A00042E8007606B1F8E740F2001E40EA05098F
:1003B00004F03F0004F47077C2F2000E49EA873778
:1003C0000EEB0014984647F040660C3454E8007F6A
:1003D000BB0103D3BFF32F8F002706E007F00047D0
:1003E000374344E8007505B1F0E77B0100F1D780A1
:1003F00052E8003F581C42E8000404B1F8E703F05B
:100400003F0003F4707349EA83330EEB001443F0AA
:1004100040630C3454E8007FBE0103D3BFF32F8F39
:10042000002706E007F000471F4344E8007505B1C8
:10043000F0E77B0100F1B38052E8003F581C42E82E
:10044000000404B1F8E703F03F0003F4707349EAD5
:1004500083330EEB001443F040630C3454E8007F08
:10046000BE0103D3BFF32F8F002706E007F000473C
:100470001F4344E8007505B1F0E77B0100F18F8070
:1004800052E8003F581C42E8000404B1F8E703F0CA
:100490003F0003F4707349EA83330EEB001443F01A
:1004A00040630C3454E8007FBE0103D3BFF32F8FA9
:1004B000002706E007F000471F4344E8007505B138
:1004C000F0E77B0100F16B8052E8003F581C42E8E6
:1004D000000404B1F8E703F03F0003F4707349EA45
:1004E00083330EEB001443F040630C3454E8007F78
:1004F000BE0103D3BFF32F8F002706E007F00047AC
:100500001F4344E8007505B1F0E77B0100F1478027
:1005100052E8003F581C42E8000404B1F8E703F039
:100520003F0003F4707349EA83330EEB001443F089
:1005300040630C3454E8007FBE0103D3BFF32F8F18
:10054000002706E007F000471F4344E8007505B1A7
:10055000F0E77B0123D452E8003F581C42E8000436
:1005600004B1F8E703F03F0003F4707249EA823205
:100570000EEB001342F0406203F10C0454E8007FDC
:10058000BD0103D3BFF32F8F002706E007F000471C
:10059000174344E8007303B1F0E77A012DD587F0E3
:1005A000044202F0004321F0004119440EEB001513
:1005B00000014EF800102AF0004028F000411844D5
:1005C0001944C5E9010154E8001F890103D2BFF3B2
:1005D0002F8F002004E044E8002303B1F3E701205B
:1005E00058B10CF1080050E8001F4A1C40E80023F5
:1005F00003B1F8E70120BDE8F0870CF10C0050E8EA
:10060000001F4A1C40E8002303B1F8E70020BDE8C2
:10061000F087000082B041F20400C4F2020050F8FA
:10062000041C002241F0010140F8041C0168CFF6CF
:10063000FF021140016050F8041C4FF6FF72CFF624
:10064000F662114040F8041C50F8041C21F480218B
:1006500040F8041C016821F4FE0101604FF41F0101
:10066000416000210191009150F8041C41F4803157
:1006700040F8041C50F8041C01F400310091019969
:1006800001310191009919B90199B1F5A06FF1D12A
:1006900050F8041C890354BF0021012100910099E6
:1006A000012953D142F20001C4F202010A6842F06A
:1006B00010020A600A6822F007020A600A6842F023
:1006C00002020A600168016001680160016841F48A
:1006D00080610160016821F47C110160016841F4CE
:1006E000E811016050F8041C41F0807140F8041CCE
:1006F00050F8041C89015FBF50F8041C5FEA8111A7
:1007000050F8041C5FEA811103D450F8041C8901DD
:10071000EED5016821F003010160016841F002019A
:10072000016000BF016801F00C0108290ED00168CA
:1007300001F00C01082909D0016801F00C01082919
:1007400004D0016801F00C010829EBD14EF60850E5
:10075000CEF200004FF00061016002B0704700006F
:1007600084B041F2040541F210044AF6442940F2F3
:10077000805740F2EC06CEF20005C4F20104C0F648
:100780000009C2F20007C2F2000600201CE000BF10
:100790004FF0000B4AF6742140F2CC0294A0C0F650
:1007A0000001C2F200025B4688F0010809F06EFF0A
:1007B0000D200AF067F840F20000C2F200000020AD
:1007C00000BF04F031FE40468046C00708D04FF419
:1007D0008050606044F24F60C0F2460007E000BF06
:1007E0004FF48050206044F64F60C0F2200001902A
:1007F000FA2002F06DF84AF668214846C0F600017A
:1008000001AA09F043FF4AF6852140F2C00248469A
:10081000C0F60001C2F2000209F038FF40F2DC002D
:10082000C2F20000D0F800A0EFF3058040B9EFF36A
:10083000108028B9EFF31180002800F0D08000BFAD
:10084000BAF1000F36D09AF80000F62840F0648024
:100850003878BAF80CB000289CD040F20050C2F2B0
:10086000000090F83F00C0070BD193E707F1180292
:1008700052E8003F42E8001404B1F9E7984200F062
:100880008880B86929688142F0D20124D6E84F2FC8
:10089000C6E8434F03B1F9E71206E7D13A690024ED
:1008A00001323A61D6E84F2FC6E8434F03B1F9E76A
:1008B000DCE700BF387800283FF46AAF40F2005010
:1008C000C2F2000090F83F00C0070CD160E700BF03
:1008D00007F1180252E8003F42E8001404B1F9E7BA
:1008E000984200F04980B86929688142F0D2012419
:1008F000D6E84F2FC6E8434F03B1F9E71206E7D118
:100900003A69002401323A61D6E84F2FC6E8434FD6
:1009100003B1F9E7DCE700BF387800283FF438AFCF
:1009200040F20050C2F2000090F83F00C0070BD127
:100930002EE700BF07F1180252E8003F42E800141A
:1009400004B1F9E7984235D0B86929688142F1D2FB
:100950000124D6E84F2FC6E8434F03B1F9E712064A
:10096000E8D13A69002401323A61D6E84F2FC6E84F
:10097000434F03B1F9E7DDE7EFF3058000284FF6B9
:100980000D00C0F200304FF0000218BF00F500204B
:100990001BE0EFF3058000284FF60D00C0F2003099
:1009A00052465B4618BF00F50020FFF7DFFCBAF89F
:1009B0000CB00FE0EFF3058000284FF60D00C0F2F9
:1009C000003018BF00F50020524600234FF0000B06
:1009D000FFF7CCFC41F21004C4F20104DAE648F25D
:1009E0006D6C5046C0F6000C00DF8346D2E600BFB7
:1009F0002825732920257320616E642072656D613E
:100A0000696E20746F6B656E202564200000000005
:100A100082B04FF2007040F2805841F20407C0F2F9
:100A20000030C2F2000840F2C00B40F2EC06CEF2F9
:100A300000070125C2F2000BC2F2000608F11804FB
:100A400000F500200122019024E000BFEFF30580B3
:100A50004FF2007200280198C0F2003208BF104621
:100A600052466FF00503FFF781FC46F26F30C0F28B
:100A70006B00CBF8030046F65560C6F64C70CBF819
:100A800000004FF4FA6001F023FF89F0010904F03F
:100A9000CBFC4A4640F2D801C2F20001D1F800A0D6
:100AA00040F2005198F80000C2F2000191F93E10A6
:100AB000B0FA80F04009B1F1FF3F4FF00001C8BF2C
:100AC00001219146D20740EA010025D048B15DE0FE
:100AD00054E8002F44E8001303B1F9E7904200F016
:100AE0004180D8F8180039688142F1D2D6E84F2FFA
:100AF000C6E8435F03B1F9E71206E9D1D8F8102040
:100B000000250132C8F81020D6E84F2FC6E8435F11
:100B100003B1F9E70125DBE748B189E054E8002F8C
:100B200044E8001303B1F9E7904200F06F80D8F871
:100B3000180039688142F1D2D6E84F2FC6E8435FEA
:100B400003B1F9E71206E9D1D8F8102000250132E7
:100B5000C8F81020D6E84F2FC6E8435F03B1F9E785
:100B60000125DBE7EFF305824FF20670C0F2083093
:100B7000002A4FF2007200F10500C0F2003208BFF7
:100B800002F10B0052460023FFF7F0FBEFF3058064
:100B900040B9EFF3108028B9EFF31180002800F07E
:100BA0009F8000BF98F8000000283FF45EAF40F23D
:100BB0000050C2F2000090F91E00B0F1FF3F0ADDC4
:100BC00053E700BF54E8002F44E8001303B1F9E7EE
:100BD00090423FF43BAFD8F8180039688142F1D217
:100BE000D6E84F2FC6E8435F03B1F9E71206E9D113
:100BF000D8F8102000250132C8F81020D6E84F2F71
:100C0000C6E8435F03B1F9E70125DBE7EFF30580B1
:100C100000284FF206704FF20072C0F20830C0F2A6
:100C2000003208BF901D52464FF0FF33FFF79EFB86
:100C3000EFF3058040B9EFF3108028B9EFF311808E
:100C4000002800F0548000BF98F8000000283CD035
:100C500040F20050C2F2000090F91E00B0F1FF3FD8
:100C600008DD32E054E8002F44E8001303B1F9E74F
:100C700090421BD0D8F8180039688142F2D2D6E8E9
:100C80004F2FC6E8435F03B1F9E71206EAD1D8F85F
:100C9000102000250132C8F81020D6E84F2FC6E8F2
:100CA000435F03B1F9E70125DCE700BFEFF30580FF
:100CB0004FF2007200280198C0F2003208BF1046BF
:100CC00052466FF00503FFF751FB46F66330C0F262
:100CD0002000CBF8030044F62040C6F26F30CEE689
:100CE00047F6C53C5046C0F6000C00DFBDE646F6B0
:100CF000A97C5046C0F6000C4FF0FF3100DFE4E75E
:100D000082B04FF6000040F2805841F2040AC0F26F
:100D10000030C2F2000840F2EC05CEF2000AC2F246
:100D20000005012408F1180600F500204FF0000925
:100D300001901CE048F6296C5846C0F6000C00DF14
:100D400046F26F3040F2CC01C0F26B00C2F20001FB
:100D5000C1F8030046F65560C6F64C7008604FF4C3
:100D6000FA6001F0B5FD89F0010904F05DFB40F285
:100D7000DC00C2F20000D0F800B098F800005FEA92
:100D8000C97139D0002800F0848040F20050C2F2CE
:100D9000000090F83F00C00709D17AE056E8002F24
:100DA00046E8001303B1F9E7904200F05E80D8F8FE
:100DB0001800DAF800108142F0D2D5E84F2FC5E8CC
:100DC000434F03B1F9E71206E8D1D8F81020002507
:100DD0000132C8F8102040F2EC04C2F20004D4E85A
:100DE0004F2FC4E8435F03B1F9E740F2EC0501245B
:100DF000C2F20005D2E700BF002800F0F48040F204
:100E00000050C2F2000090F83F00C00709D1EAE0AC
:100E100056E8002F46E8001303B1F9E7904200F0CE
:100E2000D080D8F81800DAF800108142F0D2D5E866
:100E30004F2FC5E8434F03B1F9E71206E8D1D8F8C0
:100E4000102000250132C8F8102040F2EC04C2F254
:100E50000004D4E84F2FC4E8435F03B1F9E740F240
:100E6000EC050124C2F20005D2E7EFF305824FF64C
:100E70000600C0F20830002A4FF6000200F105001B
:100E8000C0F2003208BF02F10B005A460023FFF700
:100E90006DFAEFF3058038B9EFF3108020B9EFF366
:100EA000118000283FF446AFBBF1000F00F04F80E7
:100EB0009BF80000F62840F01681BBF80E100BF1ED
:100EC0000C07D7E85F2F914202D8BFF32F8F04E0C1
:100ED000531CC7E8503F00B1F3E7BBF80E0091B2D6
:100EE000814280F04681009740F20807C2F2000775
:100EF000B7F8541007F156004FF6060CD0E85F2FF4
:100F0000914202D8BFF32F8F04E0531CC0E8553F35
:100F100005B1F3E790B2C0F2083C884280F010823D
:100F200007F15800D0E85F2F531C994200D80023E6
:100F3000C0E8553F05B1F5E7F86D91B240F821B032
:100F4000787ACE46002800F08281BC7286E198F85B
:100F5000000000283FF4F4AE40F20050C2F200005E
:100F6000C07FC00709D1EBE656E8002F46E8001322
:100F700003B1F9E7904200F02E81D8F81800DAF8B2
:100F800000108142F0D2D5E84F2FC5E8434F03B19E
:100F9000F9E71206E8D1D8F8102000250132C8F888
:100FA000102040F2EC04C2F20004D4E84F2FC4E851
:100FB000435F03B1F9E740F2EC050124C2F20005FA
:100FC000D2E7EFF3058000284FF606004FF6000247
:100FD000C0F20830C0F2003208BF901D5A464FF0F0
:100FE000FF33FFF7C3F9EFF3058038B9EFF3108053
:100FF00020B9EFF31180002800F0768198F8000006
:10100000BBF1000F37D0002800F0008140F2005003
:10101000C2F20000C07FC00709D1F7E056E8002FF8
:1010200046E8001303B1F9E7904200F09680D8F843
:101030001800DAF800108142F0D2D5E84F2FC5E849
:10104000434F03B1F9E71206E8D1D8F81020002584
:101050000132C8F8102040F2EC04C2F20004D4E8D7
:101060004F2FC4E8435F03B1F9E740F2EC050124D8
:10107000C2F20005D2E7002800F0C88040F200501C
:10108000C2F20000C07FC00709D1BFE056E8002FC0
:1010900046E8001303B1F9E7904200F0A880D8F8C1
:1010A0001800DAF800108142F0D2D5E84F2FC5E8D9
:1010B000434F03B1F9E71206E8D1D8F81020002514
:1010C0000132C8F8102040F2EC04C2F20004D4E867
:1010D0004F2FC4E8435F03B1F9E740F2EC05012468
:1010E000C2F20005D2E798F8000000283FF428AECD
:1010F00040F20050C2F20000C07FC00709D11FE6D5
:1011000056E8002F46E8001303B1F9E7904200F0DB
:101110008D80D8F81800DAF800108142F0D2D5E8B6
:101120004F2FC5E8434F03B1F9E71206E8D1D8F8CD
:10113000102000250132C8F8102040F2EC04C2F261
:101140000004D4E84F2FC4E8435F03B1F9E740F24D
:10115000EC050124C2F20005D2E7EFF305804FF65B
:10116000000200280198C0F2003208BF10465A461B
:1011700048E098F8000000283FF4E2AD40F200504B
:10118000C2F20000C07FC00709D1D9E556E8002FA0
:1011900046E8001303B1F9E7904200F0AE80D8F8BA
:1011A0001800DAF800108142F0D2D5E84F2FC5E8D8
:1011B000434F03B1F9E71206E8D1D8F81020002414
:1011C0000132C8F81020D5E84F2FC5E8434F03B1CE
:1011D000F9E70124DAE7EFF305804FF60002002873
:1011E0000198C0F2003208BF1046002229E0EFF358
:1011F00005804FF6000200280198C0F2003208BFB7
:10120000104600226FF00303FFF7B0F846F6633094
:1012100040F2CC01C0F22000C2F20001C1F803008C
:1012200044F62040C6F26F30FFF798BDEFF305801B
:101230004FF6000200280198C0F2003208BF1046A5
:101240005A466FF00303FFF791F8FFF779BD4EF6AA
:101250000450CEF200004FF08051016098F8000079
:1012600040F2EC050099C2F20005F14600283FF477
:1012700067AD40F20050C2F2000090F85F00C00776
:101280003FF45EAD0B8807E056E8002F46E80015F6
:1012900005B1F9E790423ED0D8F81800DAF800100E
:1012A0008142F1D240F2EC040127C2F20004D4E8FA
:1012B0004F2FC4E8457F05B1F9E7F1460124120636
:1012C000E2D1D8F8102000240132C8F8102040F2F2
:1012D000EC07C2F20007D7E84F2FC7E8454F05B12A
:1012E000F9E7F1460124CFE748F2791C5846C0F6E9
:1012F000000C4FF0FF3100DF88E7EFF305804FF679
:10130000000200280198C0F2003208BF10465A4679
:101310006FF0100397E7EFF30582002A4FF6000203
:101320000CF10600C0F2003208BF02F10C005A4670
:10133000FFF71CF840F2EC05C2F20005FFF700BD14
:101340000220594601F078FBFEE7000040F200025F
:10135000C2F2000291421CBF4FF0FF30704740F6CE
:101360000061CEF20001D1F88020D2071CBF0968CD
:101370005FEAC17100D170474FF060410A6832B92D
:101380000A6822B90A6812B90A68002AF6D04FF032
:10139000604108707047000082B041F20402C4F25C
:1013A0000202106841F20023C0F27A0300F00C0040
:1013B0000828184611D110681168C0F38340C9038A
:1013C00000F1020004D51168890301D4584304E0F8
:1013D00040F60011C0F23D01484340F2040BC2F256
:1013E000000BCBF8000011684AF63422C1F3031158
:1013F000C0F60002515C40F2805AC84040F20054EE
:10140000CBF80000C2F2000A0020C2F200048AF801
:101410000000204680214FF0FF39FEF722FF4AF6F8
:101420000820C0F600000338182141F221024FF0D5
:10143000FF3300BF10F8035F83EA05231DB282EA81
:1014400043074D45C8BF5F003BB282EA47054B45A5
:10145000C8BF7D002BB282EA45074B45C8BF6F006D
:101460003BB282EA47054B45C8BF7D002BB282EAFA
:1014700045074B45C8BF6F003BB282EA47054B4565
:10148000C8BF7D002BB282EA45074B45C8BF6F003D
:101490003BB282EA47054B45C8BF7D004778837859
:1014A00085EA07273DB282EA47064D45C8BF7E0060
:1014B00037B282EA46054F45C8BF75002FB282EAAF
:1014C00045064F45C8BF6E0037B282EA46054F4514
:1014D000C8BF75002FB282EA45064F45C8BF6E00EF
:1014E00037B282EA46054F45C8BF75002FB282EA7F
:1014F00045064F45C8BF6E0037B282EA46054F45E4
:10150000C8BF750085EA03231FB282EA43064F4530
:10151000C8BF5E0033B282EA46074B45C8BF7700BA
:101520003BB282EA47064B45C8BF7E0033B282EA2F
:1015300046074B45C8BF77003BB282EA47064B459A
:10154000C8BF7E0033B282EA46074B45C8BF77006A
:101550003BB282EA47064B45C8BF7E0037B282EAFB
:1015600046034F45C8BF730003397FF463AF42F2AF
:101570006B70DAF82010CEF2A5104EF6FC5541F251
:101580000408CEF200058142CEF2000840F09580BA
:10159000BAF8020099B2884240F09180DAF81C0053
:1015A000411C0028CAF81C1000F08E8040F2001088
:1015B000C2F20000002100BF4218D36801F580711B
:1015C0005F0144BF23F04063D360D3695F0144BF30
:1015D00023F04063D361D36A5F0144BF23F04063CB
:1015E000D362D36B5F0144BF23F04063D363D36CFA
:1015F0005F0144BF23F04063D364D36D5F0144BFF8
:1016000023F04063D365D36E5F0144BF23F0406392
:10161000D366D36F5F0144BF23F04063D367D2F832
:101620008C305F0144BF23F04063C2F88C30D2F8A5
:101630009C305F0144BF23F04063C2F89C30D2F875
:10164000AC305F0144BF23F04063C2F8AC30D2F845
:10165000BC305F0144BF23F04063C2F8BC30D2F815
:10166000CC305F0144BF23F04063C2F8CC30D2F8E5
:10167000DC305F0144BF23F04063C2F8DC30D2F8B5
:10168000EC305F0144BF23F04063C2F8EC30D2F885
:10169000FC305F0144BF23F04063C2F8FC30B1F579
:1016A000806F89D1286840F08070286058F8040C59
:1016B00040F0010048F8040C2AE0CAF8200001209C
:1016C000AAF80230CAF81C0040F2001040F2EC0602
:1016D0000027C2F200004FF48061C2F200068AF8CF
:1016E0000170CAE90177CAF80C70FEF7BAFD2868E4
:1016F00040F08070286058F8040C40F0010048F871
:10170000040CDBF80000CAF81870CAE904703770DE
:101710001020012140F20F12A0F11003DE0803F0A7
:101720000707A55D01FA07F345EA0307A755A0F1EE
:101730000F0707F00706FF08E55D01FA06F62E43DE
:10174000E655A0F10E0707F00706FF08E55D01FA70
:1017500006F62E43E655A0F10D0707F00706FF0831
:10176000E55D01FA06F62E43E655A0F10C0707F0F9
:101770000706FF08E55D01FA06F62E43E655A0F1DF
:101780000B0707F00706FF08E55D01FA06F62E4392
:10179000E655A0F10A0707F00706FF08E55D01FA24
:1017A00006F62E43E655A0F1090707F00706FF08E5
:1017B000E55D01FA06F62E43E655A0F10807FF089D
:1017C000E65D1E43E655C71F07F00706FF08E55D07
:1017D00001FA06F62E43E655871F07F00706FF08B5
:1017E000E55D01FA06F62E43E655471F07F00706AA
:1017F000FF08E55D01FA06F62E43E655071F07F0E0
:101800000706FF08E55D01FA06F62E43E655C71EFA
:1018100007F00706FF08E55D01FA06F62E43E655D8
:10182000871E07F00706FF08E55D01FA06F62E435E
:10183000E655471E07F00706FF08E55D01FA06F6C4
:101840002E43E655C708E65D113033439042E35519
:101850007FF462AF1020012140F20F12A0F11003BB
:1018600004EBD30603F0070796F8205001FA07F3BC
:1018700045EA030786F82070A0F10F0707F0070676
:1018800004EBD70797F8205001FA06F62E4387F8A5
:101890002060A0F10E0707F0070604EBD70797F8C2
:1018A000205001FA06F62E4387F82060A0F10D07BC
:1018B00007F0070604EBD70797F8205001FA06F661
:1018C0002E4387F82060A0F10C0707F0070604EB11
:1018D000D70797F8205001FA06F62E4387F82060C4
:1018E000A0F10B0707F0070604EBD70797F8205085
:1018F00001FA06F62E4387F82060A0F10A0707F0E8
:10190000070604EBD70797F8205001FA06F62E4396
:1019100087F82060A0F1090707F0070604EBD70756
:1019200097F8205001FA06F62E4387F82060A0F1C0
:10193000080704EBD70797F820601E4387F820605C
:10194000C71F07F0070604EBD70797F8205001FAE6
:1019500006F62E4387F82060871F07F0070604EB82
:10196000D70797F8205001FA06F62E4387F8206033
:10197000471F07F0070604EBD70797F8205001FA36
:1019800006F62E4387F82060071F07F0070604EBD2
:10199000D70797F8205001FA06F62E4387F8206003
:1019A000C71E07F0070604EBD70797F8205001FA87
:1019B00006F62E4387F82060871E07F0070604EB23
:1019C000D70797F8205001FA06F62E4387F82060D3
:1019D000471E07F0070604EBD70797F8205001FAD7
:1019E00006F62E4387F8206004EBD00797F82060B6
:1019F00011303343904287F820307FF42FAF10200E
:101A0000012140F20F1200BFA0F1100304EBD30636
:101A100003F0070796F8405001FA07F345EA030779
:101A200086F84070A0F10F0707F0070604EBD70710
:101A300097F8405001FA06F62E4387F84060A0F16F
:101A40000E0707F0070604EBD70797F8405001FA96
:101A500006F62E4387F84060A0F10D0707F0070651
:101A600004EBD70797F8405001FA06F62E4387F8A3
:101A70004060A0F10C0707F0070604EBD70797F8C2
:101A8000405001FA06F62E4387F84060A0F10B079C
:101A900007F0070604EBD70797F8405001FA06F65F
:101AA0002E4387F84060A0F10A0707F0070604EB11
:101AB000D70797F8405001FA06F62E4387F84060A2
:101AC000A0F1090707F0070604EBD70797F8405085
:101AD00001FA06F62E4387F84060A0F1080704EBF0
:101AE000D70797F840601E4387F84060C71F07F08C
:101AF000070604EBD70797F8405001FA06F62E4385
:101B000087F84060871F07F0070604EBD70797F8B0
:101B1000405001FA06F62E4387F84060471F07F051
:101B2000070604EBD70797F8405001FA06F62E4354
:101B300087F84060071F07F0070604EBD70797F800
:101B4000405001FA06F62E4387F84060C71E07F0A2
:101B5000070604EBD70797F8405001FA06F62E4324
:101B600087F84060871E07F0070604EBD70797F851
:101B7000405001FA06F62E4387F84060471E07F0F2
:101B8000070604EBD70797F8405001FA06F62E43F4
:101B900087F8406004EBD00797F84060113033437A
:101BA000904287F840307FF42FAF1020012140F29F
:101BB0000F1200BFA0F1100304EBD30603F00707D8
:101BC00096F8605001FA07F345EA030786F860705B
:101BD000A0F10F0707F0070604EBD70797F860504E
:101BE00001FA06F62E4387F86060A0F10E0707F0B1
:101BF000070604EBD70797F8605001FA06F62E4364
:101C000087F86060A0F10D0707F0070604EBD7071F
:101C100097F8605001FA06F62E4387F86060A0F14D
:101C20000C0707F0070604EBD70797F8605001FA96
:101C300006F62E4387F86060A0F10B0707F0070651
:101C400004EBD70797F8605001FA06F62E4387F8A1
:101C50006060A0F10A0707F0070604EBD70797F8C2
:101C6000605001FA06F62E4387F86060A0F109077C
:101C700007F0070604EBD70797F8605001FA06F65D
:101C80002E4387F86060A0F1080704EBD70797F8A8
:101C900060601E4387F86060C71F07F0070604EB0B
:101CA000D70797F8605001FA06F62E4387F8606070
:101CB000871F07F0070604EBD70797F8605001FA73
:101CC00006F62E4387F86060471F07F0070604EB0F
:101CD000D70797F8605001FA06F62E4387F8606040
:101CE000071F07F0070604EBD70797F8605001FAC3
:101CF00006F62E4387F86060C71E07F0070604EB60
:101D0000D70797F8605001FA06F62E4387F860600F
:101D1000871E07F0070604EBD70797F8605001FA13
:101D200006F62E4387F86060471E07F0070604EBAF
:101D3000D70797F8605001FA06F62E4387F86060DF
:101D400004EBD00797F8606011303343904287F876
:101D500060307FF42FAF607F94F83D1094F85D20E1
:101D600040F08000607741F0800094F87D1094F896
:101D70005F3084F83D0042F0800084F85D0041F05F
:101D8000800084F87D0043F0400084F85F0040F25A
:101D9000EC00C2F2000001220AE000BF0AF11805BF
:101DA00055E8006F45E8001707B1F9E7B3421AD0CC
:101DB000DAF81830D8F800109942EFD2D0E84F5F27
:101DC000C0E8462F06B1F9E72F06E7D1DAF8107020
:101DD0000137CAF810700027D0E84F5FC0E8467F8F
:101DE00006B1F9E7DAE74FF6007BC0F2003BDAF81C
:101DF0001430DAF81C205846FEF7B8FA9AF80000BA
:101E0000002835D140F2EC020120C2F200028AF82B
:101E1000000007E055E8006F45E8001707B1F9E753
:101E2000B3421BD0DAF81830D8F800109942F1D23A
:101E3000D2E84F6FC2E8470F07B1F9E73706E9D19B
:101E4000DAF8107000200137CAF81070D2E84F6F2E
:101E5000C2E8470F07B1F9E70120DBE70BF101000A
:101E600000220023FEF782FA9AF80000002841D0F1
:101E700094F83E0080073DD540F2EC00C2F200002D
:101E8000012207E055E8006F45E8001707B1F9E7C0
:101E9000B3421BD0DAF81830D8F800109942F1D2CA
:101EA000D0E84F6FC0E8472F07B1F9E73706E9D10F
:101EB000DAF8107000220137CAF81070D0E84F6FBE
:101EC000C0E8472F07B1F9E70122DBE7EFF305820E
:101ED0004FF20020C0F20830002A4FF20022A0F199
:101EE000FF00C0F2003208BFA2F1FF000022002371
:101EF000FEF73CFAEFF3058038B9EFF3108020B914
:101F0000EFF31180002800F074849AF8000010B1FB
:101F1000A07F800702D46FF0050B40E040F2EC0098
:101F2000C2F20000012207E055E8006F45E8001703
:101F300007B1F9E7B3421BD0DAF81830D8F800102F
:101F40009942F1D2D0E84F6FC0E8472F07B1F9E7C7
:101F50003706E9D1DAF8107000220137CAF810709C
:101F6000D0E84F6FC0E8472F07B1F9E70122DBE760
:101F7000EFF305824FF20020C0F20830002A4FF242
:101F80000022A0F58070C0F2003208BFA2F5807078
:101F90006FF0050200236FF0050BFEF7E7F9CDF8AF
:101FA00004B0019800B101BE4FF2012BC0F2010B49
:101FB00041F249310027C0F60001584600220023B3
:101FC0000097FEF759F9EFF3058038B9EFF3108069
:101FD00020B9EFF31180002800F013849AF8000074
:101FE00000283FD0A07F40073CD540F2EC00C2F271
:101FF0000000012208E000BF55E8006F45E8001727
:1020000007B1F9E7B3421BD0DAF81830D8F800105E
:102010009942F1D2D0E84F6FC0E8472F07B1F9E7F6
:102020003706E9D1DAF8107000220137CAF81070CB
:10203000D0E84F6FC0E8472F07B1F9E70122DBE78F
:10204000EFF3058000284FF200204FF20022C0F28B
:102050000830C0F2003208BF104600226FF00503BE
:10206000FEF784F941F20407C4F2020778690122FD
:1020700040F01000786141F20400C4F201000168F0
:1020800041F2002662F313410160796943F60C00C6
:1020900041F48041C4F20100796181884EF6F31267
:1020A00021F4405181800188C0F27A0611400C3140
:1020B0000180018921F440710181396801F00C012E
:1020C000082912D139683A68C1F38341D20301F17A
:1020D000020104D53A68920301D44E4305E040F66C
:1020E0000012C0F23D0201FB02F639684AF62022D6
:1020F000C1F30311C0F60002515C3B6826FA01F1FE
:10210000C3F30223D35C3B680326C3F3C223D25C30
:102110003B68D140C3F381324AF63023C0F6000356
:102120009A5CB0F90020192359434FF461334A45B2
:10213000C8BF4FF4E123B1FBF3F148F21F52C5F2DF
:10214000EB12A1FB02377B096FF0630703FB07115A
:10215000B0F900704F45C8BF042601FA06F101F13D
:102160003201A1FB02124FF00701C8BF0F2101EAA3
:10217000521141EA031120F8041C018841F4005176
:102180000180818821F00F018180818841F0010167
:1021900081809AF80000002840D094F93E00B0F108
:1021A000FF3F3BDC40F2EC00C2F20000012207E0FE
:1021B00055E8003F45E8001707B1F9E79E421BD0FC
:1021C000DAF81860D8F80010B142F1D2D0E84F7FA9
:1021D000C0E8432F03B1F9E73B06E9D1DAF8103044
:1021E00000220133CAF81030D0E84F3FC0E8472F33
:1021F00007B1F9E70122DBE7EFF305824FF2017047
:10220000C0F20830002A4FF000024FF0000304BF74
:102210004FF20170C0F20030FEF7A8F8EFF305802E
:1022200038B9EFF3108020B9EFF31180002800F0E7
:10223000F5829AF800000026002845D094F91E0087
:10224000B0F1FF3F40DC40F2EC00C2F2000001229E
:1022500008E000BF55E8003F45E8001707B1F9E77F
:102260009E421BD0DAF81860D8F80010B142F1D2C3
:10227000D0E84F7FC0E8432F03B1F9E73B06E9D12F
:10228000DAF8103000220133CAF81030D0E84F3F9E
:10229000C0E8472F07B1F9E70122DBE7EFF305823A
:1022A0004FF20020C0F20830002A4FF2002200F561
:1022B000A060C0F2003208BF02F5A06000226FF0FB
:1022C00005030026FEF752F840F2D800C2F20000E3
:1022D00006600BF5C0600027022102220023009750
:1022E000FDF7CAFFEFF3058038B9EFF3108020B98E
:1022F000EFF31180002800F09A829AF8000010B1E4
:10230000E07FC00701D100263FE040F2EC00C2F2BE
:102310000000012208E000BF55E8003F45E8001733
:1023200007B1F9E79E421BD0DAF81860D8F8001020
:10233000B142F1D2D0E84F7FC0E8432F03B1F9E7B3
:102340003B06E9D1DAF8103000220133CAF8103028
:10235000D0E84F3FC0E8472F07B1F9E70122DBE79C
:102360004FF201704FF20173C0F20830EFF30582B3
:10237000C0F20033FF30002A08BF03F1FF00002243
:102380006FF005030026FDF7F1FF40F2DC00C2F21A
:10239000000040F261714AF6900306600027C0F623
:1023A0000001C0F60003584600220097FDF764FFC5
:1023B000EFF3058038B9EFF3108020B9EFF3118007
:1023C000002800F03E829AF8000010B1A07F40077C
:1023D00001D400263DE040F2EC00C2F200000122F0
:1023E00008E000BF55E8003F45E8001707B1F9E7EE
:1023F0009E421BD0DAF81860D8F80010B142F1D232
:10240000D0E84F7FC0E8432F03B1F9E73B06E9D19D
:10241000DAF8103000220133CAF81030D0E84F3F0C
:10242000C0E8472F07B1F9E70122DBE7EFF30580AA
:1024300000284FF200204FF20022C0F20830C0F214
:10244000003208BF104600226FF005030026FDF79A
:102450008DFF40F2E000C2F2000040F611214AF682
:1024600058224AF6B40306600027C0F60001C0F601
:102470000002C0F6000358460097FDF7FDFEEFF39B
:10248000058038B9EFF3108020B9EFF311800028F0
:1024900000F0E7819AF8000010B1A07F400701D456
:1024A00000263CE040F2EC00C2F20000012207E00E
:1024B00055E8003F45E8001707B1F9E79E421BD0F9
:1024C000DAF81860D8F80010B142F1D2D0E84F7FA6
:1024D000C0E8432F03B1F9E73B06E9D1DAF8103041
:1024E00000220133CAF81030D0E84F3FC0E8472F30
:1024F00007B1F9E70122DBE7EFF3058000284FF28F
:1025000000204FF20022C0F20830C0F2003208BFB3
:10251000104600226FF005030026FDF727FF40F26A
:10252000E400C2F2000040F601514AF660224AF689
:10253000D80306600027C0F60001C0F60002C0F60E
:10254000000358460097FDF797FEEFF3058038B972
:10255000EFF3108020B9EFF31180002800F0948190
:102560009AF8000010B1A07F400701D400263CE09B
:1025700040F2EC00C2F20000012207E055E8003F03
:1025800045E8001707B1F9E79E421BD0DAF818605A
:10259000D8F80010B142F1D2D0E84F7FC0E8432F05
:1025A00003B1F9E73B06E9D1DAF810300022013334
:1025B000CAF81030D0E84F3FC0E8472F07B1F9E71D
:1025C0000122DBE7EFF3058000284FF200204FF2F5
:1025D0000022C0F20830C0F2003208BF10460022CC
:1025E0006FF005030026FDF7C1FE40F2E800C2F2DD
:1025F00000000660EFF3058050B9EFF3108038B9A2
:10260000EFF3118020B9EFF31480C00740F04F8141
:1026100040F20800C2F200009AF8001090F808900A
:10262000002941D094F83E0080073DD540F2EC00EF
:10263000C2F20000012207E055E8006F45E80017EC
:1026400007B1F9E7B3421BD0DAF81830D8F8001018
:102650009942F1D2D0E84F7FC0E8462F06B1F9E7A2
:102660003F06E9D1DAF8107000220137CAF810707D
:10267000D0E84F6FC0E8472F07B1F9E70122DBE749
:10268000EFF305824FF20020C0F20830002A4FF22B
:102690000022A0F1FA00C0F2003208BFA2F1FA0055
:1026A0004A460023FDF762FEB9F1010F40F0A08019
:1026B0009AF80000002841D094F83E0080073DD5EC
:1026C00040F2EC00C2F20000012207E055E8003FB2
:1026D00045E8001707B1F9E79E421BD0DAF8186009
:1026E000D8F80010B142F1D2D0E84F7FC0E8432FB4
:1026F00003B1F9E73B06E9D1DAF8103000220133E3
:10270000CAF81030D0E84F3FC0E8472F07B1F9E7CB
:102710000122DBE7EFF305824FF20020C0F2083020
:10272000002A4FF20022A0F1F900C0F2003208BFE7
:10273000A2F1F90000220023FDF718FEEFF3058057
:1027400038B9EFF3108020B9EFF31180002800F0C2
:10275000B8809AF8000010B1A07F800702D46FF013
:10276000050440E040F2EC00C2F200000122002328
:1027700008E000BF55E8004F45E8001707B1F9E74A
:10278000A64219D0DAF81860D8F80010B142F1D298
:10279000D0E84F4FC0E8472F07B1F9E72706E9D146
:1027A000DAF810700137CAF81070D0E84F4FC0E85F
:1027B000473F07B1F9E7DDE7EFF305824FF200206D
:1027C000C0F20830002A4FF20022A0F58070C0F25B
:1027D000003208BFA2F580706FF0050200236FF091
:1027E0000504FDF7C3FD0194019808B101BE00BFC7
:1027F000FEE745F6490CC0F6000C00DF8346FFF704
:10280000CEBB41F2493049F6B50CC0F60000C0F627
:10281000000C0021002200DFFFF724BC47F2057CFA
:102820000020C0F6000C00DF0646FFF74DBD48F65D
:102830009D0C0220C0F6000C0221002200DF06469B
:10284000A3E540F2617049F6B50CC0F600004AF607
:102850009002C0F6000CC0F60002002100DF064620
:10286000F7E540F6112049F6B50CC0F600004AF62F
:1028700058214AF6B402C0F6000CC0F60001C0F6BA
:10288000000200DF06464AE640F6015049F6B50C64
:10289000C0F600004AF660214AF6D802C0F6000CE5
:1028A000C0F60001C0F6000200DF06469DE645F2D4
:1028B000917CC0F6000C00DF8146B9F1010F97D181
:1028C000F6E645F6013CC0F6000C00DF04468AE758
:1028D0002DE9F04381B040F28055C2F2000529781D
:1028E00040F2005881460029C2F2000842D098F810
:1028F0003E0000073ED541F2040E40F2EC0CCEF251
:10290000000EC2F2000C05F1180607E056E8003F81
:1029100046E8001707B1F9E79C421AD0AC69DEF827
:102920000010A142F2D201226046D0E84F7FC0E8F9
:10293000432F03B1F9E73B06E8D12B696046013329
:102940002B610022D0E84F3FC0E8472F07B1F9E7DD
:10295000DCE74FF200334FF20130EFF30582C0F2B3
:102960000033C0F20830002A08BF581C4A46002332
:10297000FDF7FCFCEFF3058030B9EFF3108018B9D8
:10298000EFF3118000284CD0287818B198F81E0079
:10299000000702D401B0BDE8F08341F2040E40F21A
:1029A000EC0CCEF2000EC2F2000C05F1180607E0A6
:1029B00056E8003F46E8001404B1F9E79F421AD0F8
:1029C000AF69DEF80010B942F2D201226046D0E8C9
:1029D0004F4FC0E8432F03B1F9E72306E8D12B6935
:1029E000604601332B610022D0E84F3FC0E8442FFE
:1029F00004B1F9E7DCE74FF20030C0F20030EFF34A
:102A0000058200F50020002A04BF4FF20030C0F21A
:102A100000306FF00502002301B0BDE8F043FDF780
:102A2000A5BC45F2895C4846C0F6000C00DF01B049
:102A3000BDE8F083FEE7000040F28053C2F20003DD
:102A40001A78002A4AD0864640F20050C2F20000AE
:102A5000807F800742D541F2040940F2EC088C46A1
:102A6000CEF20009C2F2000803F1180708E000BF27
:102A700057E8005F47E8001606B1F9E7AA421AD006
:102A80009A69D9F800109142F2D201244046D0E868
:102A90004F6FC0E8454F05B1F9E73506E8D11D692C
:102AA000404601351D610024D0E84F5FC0E8464F25
:102AB00006B1F9E7DCE74FF21910EFF30582C0F237
:102AC000003000F50020002A7246634604BF4FF232
:102AD0001910C0F20030FDF749FC00BFFEE700000E
:102AE0002DE9F04381B09446034600280A4618BFFA
:102AF000002A0AD14FF201000024C0F20200194658
:102B000063460094FDF7B8FB65E0184602F10F013B
:102B100050F8086F21F007014468371A24F00305C4
:102B20007F1B8F4228D23068D8B17468871B24F08D
:102B300003057F1B8F4222D2066896B14468371A7C
:102B400024F003057F1B8F4216D2306848B17468A9
:102B5000871B24F003057F1B8F4210D20668002ECE
:102B6000DAD14FF201000024C0F202001946634698
:102B70000094FDF781FB2EE08646B04602E0B646A3
:102B800080463046D3E900699F1957F8045C09EB89
:102B90000106B5425E6003D2A7F10804666044688E
:102BA0005CB124F0030444F80E80A64441EA0C0111
:102BB000CEF80410C0F800E002E041EA0C014160E8
:102BC0004FF201000EF10804C0F2020019466346FC
:102BD0000094FDF751FB204601B0BDE8F0830000F2
:102BE00010B582B0864600288C4618BFBCF1000F95
:102BF00008D14FF202000024C0F202007146624682
:102C0000002337E0ACF108000EF10802824218D030
:102C10001368002BEDD08342114613D01A68002AA6
:102C2000E7D0824219460DD01368002BE1D08342D1
:102C3000114607D01A68002ADBD082421946E7D134
:102C400000E000215CF8042CDEF8043022F00302DE
:102C50009A1ACEF8042011B10068086002E0002042
:102C60004CF8040C4FF202000024C0F2020071463E
:102C7000624601230094FDF7FFFA02B010BD000088
:102C80002DE9F04F83B004468078002800F0A28040
:102C900004F1040A9AE803040AF1300800284246C5
:102CA0000EBFCAF82C108160A168002918BF0A1D48
:102CB0001060DAF818000027A0420AF10C0927700A
:102CC0001DD8DAF81C00A04219D90AF120000168C9
:102CD0002160BFF35F8F50E8001F22688A42F6D15F
:102CE00040E8004303B1F2E70AF1100050E8001F8A
:102CF0004A1E40E8002303B1F8E7002301E06FF02B
:102D000003034FF20500C0F2020049462246009735
:102D1000FDF7B2FADAF80800002800F0EA820AF1BA
:102D2000200050E8004F14B9BFF32F8F04E0216852
:102D300040E8001202B1F4E740F2805B002CC2F2DE
:102D4000000B00F0D5800AF1100050E8001F4A1C6B
:102D500040E8002303B1F8E79BF80000002800F0EA
:102D6000758140F20050C2F2000090F85E00C0078A
:102D700000F06C8141F2040040F2EC02A446CEF275
:102D80000000C2F200020BF1180608E056E8003F0E
:102D900046E8001707B1F9E79C4200F02F81DBF805
:102DA00018400168A142F1D20125D2E84F3FC2E8A4
:102DB000475F07B1F9E71B06E8D1DBF810300025C3
:102DC0000133CBF81030D2E84F3FC2E8475F07B17C
:102DD000F9E7DBE7D4F80890D4F804C0D9F8086024
:102DE000A246002E44D07078832841D140F280570B
:102DF000C2F200073878002800F08B8140F20050C2
:102E0000C2F2000090F85F00400740F1828141F279
:102E1000040840F2EC0ECEF20008C2F2000E0124CB
:102E200007F1180309E000BF53E8002F43E800153D
:102E300005B1F9E7964200F05A81BE69D8F8001052
:102E4000B142F1D27046D0E84F5FC0E8424F02B1C4
:102E5000F9E72A06E8D13A69002401323A6170465E
:102E6000D0E84F2FC0E8454F05B1F9E70124DBE773
:102E700040F28050C2F200000178002900F0888002
:102E800040F20051C2F2000191F85F10490740F191
:102E90007F8041F2040840F2EC0ECEF20008C2F24C
:102EA000000E00F1180308E053E8006F43E8001734
:102EB00007B1F9E7B54200F05B808569D8F80010EA
:102EC000A942F1D274460122D4E84F7FC4E8462FCC
:102ED00006B1F9E73F06E7D1076974460137076194
:102EE0000022D4E84F6FC4E8472F07B1F9E7DBE7CA
:102EF0009BF80000002800F0FC8140F20050C2F274
:102F0000000090F85E00C00700F0F38141F2040079
:102F100040F2EC0CCEF20000C2F2000C0BF11806ED
:102F2000029408E056E8002F46E8001404B1F9E7DF
:102F3000934200F07680DBF8183001689942F1D2B4
:102F400067460125D7E84F4FC7E8425F02B1F9E76E
:102F50002206E7D1DBF8102067460132CBF81020BB
:102F60000025D7E84F2FC7E8445F04B1F9E7D9E758
:102F7000EFF305824FF60A20C0F20830002A4A46D5
:102F8000634604BF4FF60A20C0F20030FDF7EEF9A9
:102F90004A4652F8300F28B39AF80310C3788B4290
:102FA00026D24368002B00F05C81DA788A4280F0F8
:102FB00054815868002800F05381C2788A4280F01A
:102FC00063814368002B00F04C81DA788A4280F0FC
:102FD00044815868002800F04381C2788A421A462A
:102FE000DFD352E10020CAE90100C9F82CA054E166
:102FF0000021CAE90101C0F808A04EE1EFF3058203
:103000004FF20400C0F20830002A4A46634604BF6B
:103010004FF20400C0F200306446FDF7A7F9ACB9E6
:1030200067E1EFF305824FF20400C0F20830002A96
:103030004A464FF0000304BF4FF20400C0F20030D4
:10304000FDF794F9029C002C00F05381DAF8086037
:103050004FF00009B06800210028CAF8080018BF26
:10306000C0F80CA030462746C6F80C9000F046FF8A
:10307000B46BDAF82420616A07F10C003E46029135
:10308000FDF7D6F8F9203870DAF8300094F82810F7
:1030900087F80290F97018B3C2788A4225D2436843
:1030A000002B00F0E880DA788A4280F0E0805868EF
:1030B000002800F0DF80C2788A4280F0FC804368FC
:1030C000002B00F0D880DA788A4280F0D0805868EF
:1030D000002800F0CF80C2788A421A46DFD3EBE0A6
:1030E000C6E90199CAF82C60EDE00022E4E0EFF3B4
:1030F00005824FF60A20C0F20830002A4A4663468D
:1031000004BF4FF60A20C0F20030FDF72FF9D9F8BE
:103110000860B06800210028C9F8080018BFC0F88E
:103120000C900020F060304600F0E8FEB56BD9F856
:103130002420D5F824800AF10C0140465446FDF7BE
:1031400077F8A86A00281CBFE17801703878002859
:103150004AD040F20050C2F2000090F85F004007F1
:1031600042D541F2040E40F2EC0CCEF2000EC2F257
:10317000000C012407F1180608E000BF56E8002FF4
:1031800046E8001505B1F9E793421AD0BB69DEF8AD
:1031900000109942F2D26046D0E84F5FC0E8424F3B
:1031A00002B1F9E72A06E9D13A69002401323A610D
:1031B0006046D0E84F2FC0E8454F05B1F9E701243C
:1031C000DCE74FF60A204FF60A23C0F20830EFF38F
:1031D0000582C0F200330530002A08BF581D4A4658
:1031E0004346FDF7C3F85446D9F818000027A0421B
:1031F00009F10C01277023D8D9F81C00A0421FD96F
:1032000009F1200002682260BFF35F8F50E8002FB1
:1032100023689342F6D140E8004505B1F2E709F191
:10322000100050E8002F531E40E8003505B1F8E7C4
:103230004FF205000027C0F202002246002306E0FC
:103240004FF20500C0F2020022466FF00303009720
:10325000FDF712F803B0BDE8F08F0246184614E0FF
:1032600018460021CAE9011009F12C0112E00246BA
:10327000184621E0184600210246C6E90110CAF8A6
:103280002C6002F104081EE01A46CAE9010200F1AE
:1032900008011046C1F800A0021DC2F800A009F103
:1032A000280050E8001F4A1C40E8002303B1F8E75B
:1032B00003B0BDE8F08F1A46C6E90102002A866015
:1032C00018BF02F10408C8F800600AF1280050E8AD
:1032D000001F4A1C40E8002303B1F8E79BF80000F8
:1032E00038B140F20050C2F2000090F85F00400791
:1032F00002D403B0BDE8F08F41F2040040F2EC02CA
:10330000CEF20000C2F200020BF1180608E000BF86
:1033100056E8003F46E8001707B1F9E79C421AD08B
:10332000DBF818400168A142F2D20125D2E84F7FB4
:10333000C2E8435F03B1F9E73B06E9D1DBF810309F
:1033400000250133CBF81030D2E84F3FC2E8475F89
:1033500007B1F9E7DCE74FF60A20C0F20830EFF3D7
:103360000582002A04BF4FF60A20C0F20030029BFB
:10337000524603B0BDE8F04FFCF7F8BF70B540F21D
:103380000804C2F20004B4F8540004F15605D5E86C
:103390005F1F11B9BFF32F8F04E04A1EC5E8532FFA
:1033A00003B1F4E7090438D004F15A0610E000BF75
:1033B0008847B4F85400D5E85F1F11B9BFF32F8FC9
:1033C00004E04A1EC5E8532F03B1F4E7090424D0F2
:1033D000D6E85F1F4A1C904200D80022C6E8532F4F
:1033E00003B1F5E7E06D89B250F82100A8B101788A
:1033F000F1390829DDD8DFE801F008070A07070CD2
:103400000E070500216FD3E7D3E7216ED0E7616E89
:10341000CEE7A16ECCE7E16ECAE70020BDE87040C0
:1034200000F07AB82DE9F04381B081468068002829
:103430002AD009F10C00D0E85F1F11B9BFF32F8F1C
:1034400004E04A1EC0E8532F03B1F4E708041BD080
:10345000D9F8080081680029C9F8081018BFC1F818
:103460000C900021C160002100F048FD40F2805026
:10347000C2F20000017839B140F20051C2F20001FD
:1034800091F85F10C90702D101B0BDE8F083B9F827
:103490000CC041F2040840F2EC0ECEF20008C2F279
:1034A000000E00F1180707E057E8005F47E8001634
:1034B00006B1F9E7AB421AD08369D8F800109942F7
:1034C000F2D272460124D2E84F6FC2E8454F05B1EF
:1034D000F9E73606E8D1066972460136066100242E
:1034E000D2E84F5FC2E8464F06B1F9E7DCE74FF696
:1034F0000900C0F20030EFF3058200F50020002A39
:1035000004BF4FF60900C0F200304A46634601B0DE
:10351000BDE8F043FCF72ABF2DE9F04F81B040F23F
:103520000809C2F20009834699F80800D9F814C0C6
:10353000BBF1000F52D09BF9201002282BD19CF92F
:103540002030994227DD01208CF8010009F11C0090
:103550008168002900F0978091F920709F4240F324
:103560008E808868002800F08D8090F920209A4293
:1035700040F399808168002900F0858091F920202E
:103580009A427CDD886800287CD090F920200F4684
:103590009A42DDDC88E001208BF8010009F11C0073
:1035A0008268002A59D092F920308B4251DB906812
:1035B000002851D090F920308B4256DB8268002AD7
:1035C0004BD092F920308B4243DB9068002843D0E7
:1035D00090F920308B421346E2DA47E0022841D1CD
:1035E000D9F824A0BAF1000F3CD09AF920009CF938
:1035F0002010884236DDDAF80C0050B1DAF80830D5
:103600008360DAF80830002B18BFD8600020CAF8B1
:103610000C0001208CF8010009F11C008368E3B361
:1036200093F920708F4234DD9868A8B390F9202078
:103630008A4240F3EB8083687BB393F920208A426F
:1036400027DD986840B390F920201F468A42E5DCC8
:10365000DDE00346104609E010460021CBE90210E8
:10366000C0F808B001B0BDE8F08F1346CBE9020303
:10367000C3F808B0C0F80CB001B0BDE8F08F074641
:10368000084611E0084600F108010023CCE90230A9
:1036900010E007461846BAE0184600F1080100237A
:1036A000CCE90230B9E00F46CCE90207C7F808C000
:1036B00000F10C0140F28056C2F200063078C1F8E9
:1036C00000C068B140F20058C2F2000898F87E00CD
:1036D00040070DD402208BF80100C9F818B052E061
:1036E00002208BF80100C9F818B001B0BDE8F08FD6
:1036F00041F2040A40F2EC0ECEF2000AC2F2000ED1
:1037000006F1180508E000BF55E8002F45E8001352
:1037100003B1F9E797421AD0B769DAF80010B94255
:10372000F2D270460124D0E84F3FC0E8424F02B1C8
:10373000F9E71A06E8D13269704601323261002495
:10374000D0E84F2FC0E8434F03B1F9E7DCE74FF271
:103750001820EFF30582C0F2003000F50020002AA7
:1037600062464FF0000304BF4FF21820C0F2003051
:10377000FCF7FCFD3078022100288BF80110C9F815
:1037800018B03FF46FAF98F85E0040077FF56AAF5E
:1037900041F2040E40F2EC0CCEF2000EC2F2000C2C
:1037A00006F1180708E000BF57E8002F47E80013AC
:1037B00003B1F9E795421AD0B569DEF80010A942C5
:1037C000F2D201246046D0E84F3FC0E8424F02B138
:1037D000F9E71A06E8D13269604601323261002405
:1037E000D0E84F2FC0E8434F03B1F9E7DCE74FF2D1
:1037F0001920EFF305824FF21823C0F20830C0F20F
:103800000033002A08BF581C5A46B0E01F46CCE9D6
:103810000207C7F808C000F10C0140F28056C2F25E
:1038200000063078C1F800C068B140F20058C2F21A
:10383000000898F87E0040070DD402208AF80100A5
:10384000C9F818A051E002208AF80100C9F818A0B0
:1038500001B0BDE8F08F41F2040B40F2EC0ECEF265
:10386000000BC2F2000E06F1180507E055E8003F14
:1038700045E8001404B1F9E79F421AD0B769DBF8B4
:103880000010B942F2D201227046D0E84F4FC0E892
:10389000432F03B1F9E72306E8D1336970460133BA
:1038A00033610022D0E84F3FC0E8442F04B1F9E76C
:1038B000DCE74FF21820EFF30583C0F2003000F58B
:1038C0000020002B62464FF0000304BF4FF2182087
:1038D000C0F20030FCF74AFD3078022100288AF857
:1038E0000110C9F818A03FF4BDAE98F85E0040077B
:1038F0007FF5B8AE41F2040E40F2EC0CCEF2000EB1
:10390000C2F2000C06F1180708E000BF57E8003FBC
:1039100047E8001404B1F9E79D421AD0B569DEF812
:103920000010A942F2D201226046D0E84F4FC0E811
:10393000432F03B1F9E72306E8D133696046013329
:1039400033610022D0E84F3FC0E8442F04B1F9E7CB
:10395000DCE7EFF305824FF219204FF21823C0F293
:103960000830002A5246C0F2003308BF581C00231A
:1039700001B0BDE8F04FFCF7F9BC0000002844D0CE
:10398000014600BF0A78F12A13D1C968E9B30A7861
:10399000F12A0ED1C968C1B30A78F12A09D1C968E0
:1039A00099B30A78F12A04D1C968002908BF704781
:1039B000E8E7C2682AB1836893608368002B18BF68
:1039C000DA6090F920C08B68DBB193F92020624562
:1039D00013DB9968A1B191F92020624516DB8B6851
:1039E0007BB193F92020624507DB996841B191F9D9
:1039F000202062451A46E6DA09E00A46194606E042
:103A000019460022C0E90221886070471A46C0E9C1
:103A100002129060C86070472DE9F04381B0814682
:103A20004078332840F0828099F82310D9F8240098
:103A30008A0714D4C90709F1280140F0648051E8CD
:103A4000005F054203D1BFF32F8F002505E025EA73
:103A5000000241E8002303B1F1E79DB966E0D9F81F
:103A6000285001F0010105EA0002101A18BF0120D8
:103A7000014240F05B8052EA010000F05780002DC7
:103A800000F0548040F28050C2F20000017800291A
:103A900000F0628040F20051C2F2000191F87E1005
:103AA000490740F1598041F2040840F2EC0EAC465F
:103AB000CEF20008C2F2000E00F1180708E000BFC5
:103AC00057E8003F47E8001606B1F9E79D4230D0BD
:103AD0008569D8F80010A942F2D272460124D2E8D2
:103AE0004F6FC2E8434F03B1F9E73306E8D10369EA
:103AF0007246013303610024D2E84F3FC2E8464FCB
:103B000006B1F9E7DCE751E8005F05EA000282420E
:103B100003D0BFF32F8F002505E025EA000241E81E
:103B2000002303B1EFE7002D7FF4ACAF01B0BDE897
:103B3000F0834FF21720EFF30582C0F2003000F55A
:103B40000020002A4A46634604BF4FF21720C0F205
:103B500000306546FCF70AFCD9F83800D9F8101097
:103B60000562D9F81C20501C40F20800C2F2000087
:103B70000BD029B1CB691A44D9F81430CA614B6112
:103B8000D9F814204AB9C1620BE000291CBFD9F84A
:103B900014204A61D9F8142082B311610021C9F8B8
:103BA00014100021C9F81C10012189F8011099F99D
:103BB00020101C308268DAB192F920308B4213DB7E
:103BC0009068A0B190F920308B4219DB82687AB1FD
:103BD00092F920308B4207DB906840B190F9203099
:103BE0008B421346E6DA0CE00346104609E0104625
:103BF00000F108030021C9E9021008E00163D0E7E1
:103C00001346C9E90203C3F8089000F10C03D9F880
:103C1000241099F823204FF20940C3F80090C0F215
:103C200002002B46CDF80090FCF726FB01B0BDE862
:103C3000F0830000016B806B88429CBF00207047BE
:103C400008684DF25B11C1F6A5510844B0FA80F046
:103C5000400970472DE9F04F81B040F20804C2F2EC
:103C60000004267AD4F824B0022E40F02D81BBF156
:103C7000000F00F0298140F2805AC2F2000A80460B
:103C80009AF80000D4F8149040F2005C0D46002829
:103C9000C2F2000C00F051809CF87E0040074CD529
:103CA00041F2040E40F2EC0CCEF2000EC2F2000C17
:103CB0000AF11807009607E057E8003F47E80014AC
:103CC00004B1F9E79E421DD0DAF81860DEF8001062
:103CD000B142F1D201226046D0E84F4FC0E8432FF5
:103CE00003B1F9E72306E7D1DAF810306046013373
:103CF000CAF810300022D0E84F3FC0E8442F04B18A
:103D0000F9E7D9E74FF21620EFF30582C0F2003051
:103D100000F50020002A4A462B4604BF4FF2162029
:103D2000C0F20030FCF722FB009E40F2080440F293
:103D3000005CC2F20004C2F2000C681C89F8018029
:103D40002DD0E06A00284CD0C169A94202D90022D6
:103D5000002149E003696D1A002B00F0C380D96986
:103D60008D42C0F0C28018696D1A002800F0C18031
:103D7000C1698D4210D303696D1A002B00F0B28027
:103D8000D9698D42C0F0B18018696D1A002800F021
:103D9000B080C1698D42DDD200211A4624E004F1D1
:103DA00030000022034600BF1B6811465BB11A6950
:103DB000194642B1176911462FB13A69394602F1E5
:103DC0001003002AF0D14FF0FF32C9F81C20002266
:103DD000C9F810200029C9F8141018BF01F110000B
:103DE00013E001210022002002F11003002AC9F88B
:103DF0001C50C9E9040208BF04F12C03C3F8009069
:103E000029B9C169491BC1611430C0F80090D4F8C8
:103E100024E0DEF80800002860621CBF04F11C01E9
:103E2000C1609AF800100020CEF80C000220002992
:103E30008EF80100C4F818E046D09CF85E004007F8
:103E400042D541F2040040F2EC02B046CEF200004E
:103E5000C2F200020AF1180708E000BF57E8004F5D
:103E600047E8001505B1F9E7A6421AD0DAF818605C
:103E70000168B142F2D20123D2E84F4FC2E8453F78
:103E800005B1F9E72506E9D1DAF81050002301352C
:103E9000CAF81050D2E84F4FC2E8453F05B1F9E7E4
:103EA000DCE7EFF305834FF219204FF21627C0F23B
:103EB0000830002B72464FF00003C0F2003708BFF5
:103EC000F81CFCF753FA4646B01EB0FA80F04009E1
:103ED000BBF1000F18BF4FF0010B00EA0B0001B05F
:103EE000BDE8F08F012102467DE700210246184619
:103EF0007AE7012100201A4676E700002DE9F04319
:103F000081B040F28052C2F2000213788846002B42
:103F1000814649D040F20050C2F2000090F87E0085
:103F2000400741D541F2040E40F2EC0CCEF2000EF7
:103F3000C2F2000C02F1180508E000BF55E8004F7E
:103F400045E8001606B1F9E7A7421AD09769DEF8EE
:103F50000010B942F2D201236046D0E84F6FC0E8AA
:103F6000443F04B1F9E73606E8D1166960460136E8
:103F700016610023D0E84F4FC0E8463F06B1F9E78D
:103F8000DCE74FF21720EFF30582C0F2003000F5B6
:103F90000020002A4A464FF0000304BF4FF21720CA
:103FA000C0F20030FCF7E2F9D9F8380000210162D4
:103FB000D9F81C10D9F810004A1C0FD028B1C269DA
:103FC0001144D9F81420C1614261D9F8141069B9BB
:103FD00040F20801C2F20001C8620BE000281CBFD9
:103FE000D9F814104161D9F8141099B30861002070
:103FF000C9F814000020B8F1000FC9F81C0005D062
:10400000484601B0BDE8F043FFF786BA012089F8C1
:10401000010040F20800C2F2000099F920101C30A3
:1040200082686AB392F920308B4219DB9068D0B174
:1040300090F920308B4218DB82680AB392F9203065
:104040008B420DDB9068D0B190F920308B42134643
:10405000E6DA0BE040F20801C2F200010863C9E7AA
:104060000346104602E010460AE01346C9E902037F
:10407000C3F80890C0F80C9001B0BDE8F08310467A
:104080000021C9E90210C0F8089001B0BDE8F08332
:104090002DE9F04F81B04EF21000CEF2000040F258
:1040A00008050068C2F20005E868EC6A0130002CDF
:1040B000E86000F08C83E0690138E06140F08783BC
:1040C00041F2040840F2805A40F2005740F2EC09F5
:1040D000CEF20008C2F2000A05F11C0BC2F2000782
:1040E000C2F20009607813384FEA3010082800F255
:1040F000DC82DFE810F00900DA023E007200BA004C
:10410000ED0036017E01C6019AF80000002800F09B
:10411000458297F85E0000070DD400F0C6BA00BFD4
:104120000AF1180252E8003F42E8001505B1F9E72C
:10413000984200F03882DAF81800D8F8001081426E
:10414000EED201254E46D6E84F2FC6E8435F03B1B5
:10415000F9E71206E4D1DAF8102000250132CAF896
:1041600010204E46D6E84F2FC6E8435F03B1F9E76B
:10417000D6E79AF80000002800F0108297F85E0059
:10418000C0060CD491E200BF0AF1180252E8003FC9
:1041900042E8001505B1F9E7984200F01682DAF816
:1041A0001800D8F800108142EED201254E46D6E81C
:1041B0004F2FC6E8435F03B1F9E71206E4D1DAF8FE
:1041C000102000250132CAF810204E46D6E84F2FA5
:1041D000C6E8435F03B1F9E7D6E720782246F12825
:1041E00010D12246D2681078F1280BD1D26810780D
:1041F000F12807D1D2681078F12803D1D26810785D
:10420000F128EFD09AF80000002800F0C78197F855
:104210005E0080060BD448E20AF1180353E8005F01
:1042200043E8001606B1F9E7A84200F0DC81DAF8AD
:104230001800D8F800108142EED201264F46D7E888
:104240004F3FC7E8456F05B1F9E71B06E4D1DAF83F
:10425000103000260133CAF810304F46D7E84F3FE0
:10426000C7E8456F05B1F9E7D6E720782546F1287C
:1042700010D12546ED682878F1280BD1ED68287813
:10428000F12807D1ED682878F12803D1ED68287866
:10429000F128EFD0E878800740F14781E86890F88E
:1042A0002110C26A04E000BF5269002A00F0318187
:1042B000D3789B07F8D59368A34208BFA368002B67
:1042C000F2D093F920304EB2B342C8BFD9B2EBE777
:1042D00020782246F12811D1224600BFD2681078FA
:1042E000F1280BD1D2681078F12807D1D268107864
:1042F000F12803D1D2681078F128EFD09AF80000A5
:10430000002800F04B8197F85F00C0070BD1CCE18B
:104310000AF1180353E8005F43E8001606B1F9E715
:10432000A84200F06D81DAF81800D8F80010814238
:10433000EED201264F46D7E84F3FC7E8456F05B19B
:10434000F9E71B06E4D1DAF8103000260133CAF889
:1043500010304F46D7E84F3FC7E8456F05B1F9E742
:10436000D6E720782246F12810D12246D26810786C
:10437000F1280BD1D2681078F12807D1D2681078D3
:10438000F12803D1D2681078F128EFD09AF8000014
:10439000002800F0038197F85F0080070BD484E1C8
:1043A0000AF1180353E8005F43E8001606B1F9E785
:1043B000A84200F03681DAF81800D8F800108142DF
:1043C000EED201264F46D7E84F3FC7E8456F05B10B
:1043D000F9E71B06E4D1DAF8103000260133CAF8F9
:1043E00010304F46D7E84F3FC7E8456F05B1F9E7B2
:1043F000D6E720782246F12810D12246D2681078DC
:10440000F1280BD1D2681078F12807D1D268107842
:10441000F12803D1D2681078F128EFD09AF8000083
:10442000002800F0BB8097F85F0040070BD43CE108
:104430000AF1180353E8005F43E8001606B1F9E7F4
:10444000A84200F0FF80DAF81800D8F80010814286
:10445000EED201264F46D7E84F3FC7E8456F05B17A
:10446000F9E71B06E4D1DAF8103000260133CAF868
:1044700010304F46D7E84F3FC7E8456F05B1F9E721
:10448000D6E720782246F12810D12246D26810784B
:10449000F1280BD1D2681078F12807D1D2681078B2
:1044A000F12803D1D2681078F128EFD09AF80000F3
:1044B000002800F0738097F85F0040070BD4F4E009
:1044C0000AF1180353E8005F43E8001606B1F9E764
:1044D000A84200F0C480DAF81800D8F80010814231
:1044E000EED201264F46D7E84F3FC7E8456F05B1EA
:1044F000F9E71B06E4D1DAF8103000260133CAF8D8
:1045000010304F46D7E84F3FC7E8456F05B1F9E790
:10451000D6E790F820208A4207D080F82010FFF7D5
:104520002DFA40F20057C2F200079AF80000002866
:1045300034D097F95E00B0F1FF3F10DD0120002874
:1045400040F0B780F8E000BF0AF1180252E8003FDF
:1045500042E8001606B1F9E7984200F09180DAF8D7
:104560001800D8F800108142EED201264F46D7E855
:104570004F2FC7E8436F03B1F9E71206E4D1DAF829
:10458000102000260132CAF810204F46D7E84F2FDE
:10459000C7E8436F03B1F9E7D6E700BF0020002862
:1045A00040F08780C8E0EFF305824FF21720C0F299
:1045B0000830002A4FF2172200F1EE00C0F200325C
:1045C00008BF02F1EE00224668E0EFF30580002804
:1045D0004FF20840C0F2083004BF4FF20840C0F26A
:1045E000003022465AE0EFF3058000284FF20D50CC
:1045F000C0F2083004BF4FF20D50C0F200304DE061
:104600004FF20870EFF30583C0F2083000F58070B8
:10461000002B4FF20873C0F2003308BF03F580701F
:104620003CE04FF20870EFF30583C0F2083000F56C
:104630000070002B4FF20873C0F2003308BF03F57F
:1046400000702BE0EFF3058000284FF60E20C0F23B
:10465000083004BF4FF60E20C0F200301EE04FF2CB
:104660000870EFF30583C0F2083000F54070002BAE
:104670004FF20873C0F2003308BF03F540700DE03D
:10468000EFF3058000284FF208704FF20872C0F275
:104690000830C0F2003208BF10462A460023FBF75C
:1046A00065FE40F20057C2F200079AF800000028A9
:1046B00042D097F87E0040073ED5A06B036A09E020
:1046C0000AF1180252E8005F42E8001606B1F9E765
:1046D000A8421DD0DAF81800D8F800108142EFD2B5
:1046E00001264F46D7E84F2FC7E8456F05B1F9E7D8
:1046F0001206E5D1DAF8102000260132CAF810209F
:104700004F46D7E84F2FC7E8456F05B1F9E7D7E720
:10471000EFF3058000284FF217204FF21722C0F266
:104720000830C0F2003208BF10462246FBF71EFEDA
:1047300040F20057C2F20007E06838B1A16881601A
:10474000A168002918BFC8600020E060012094F92A
:104750002010607058468268EAB192F920308B428E
:1047600014DB9068B0B190F920308B4219DB82687D
:104770008AB192F920308B4208DB906850B190F9F1
:1047800020308B421346E6DA0CE000BF03461046A9
:1047900008E000BF104600F108010022C4E9022031
:1047A00005E01346C4E902039C6000F10C010C60B3
:1047B000246934B1E06900283FF494AC00206061C2
:1047C00000E0002440F20805C2F20005EC6200207F
:1047D000FEF7A2FE286D002818BF8047296C71B132
:1047E000A869EA6B904205D0C269E86322B9C16149
:1047F0000A4601E0C2692AB1511EC16102D001B06E
:10480000BDE8F08F297A0229F9D1D5F824A0BAF1B0
:10481000000FF4D09AF8201090F820209142EED1A9
:10482000DAF80C2052B1DAF808309360DAF8083080
:10483000002B18BFDA600022CAF80C204AB201210E
:10484000417005F11C018B68DBB193F92070974230
:1048500013DB9968A1B191F92070974217DB8B683F
:104860007BB193F92070974207DB996841B191F9C8
:10487000207097421F46E6DA0AE00F46194607E025
:104880001946002301F10802C0E9023105E01F4684
:1048900001F10C02C0E90217B86040F28058C2F280
:1048A000000898F80010106069B140F20059C2F297
:1048B000000999F87E0040070BD402208AF8010015
:1048C000C5F818A053E002208AF80100C5F818A026
:1048D00094E0D5F83CC041F2040B40F2EC0ECEF26D
:1048E000000BC2F2000E08F1180607E056E8004F70
:1048F00046E8001707B1F9E7A2421DD0D8F8182002
:10490000DBF800109142F1D201237046D0E84F7FCE
:10491000C0E8443F04B1F9E73F06E7D1D8F810708A
:1049200070460137C8F810700023D0E84F4FC0E838
:10493000473F07B1F9E7D9E74FF217204FF21723A6
:10494000C0F20830EFF30582C0F200330130002AD4
:1049500008BF581C62460023FBF708FD98F80000CA
:10496000022100288AF80110C5F818A046D099F84D
:104970005E00400742D541F2040E40F2EC0CCEF24C
:10498000000EC2F2000C08F1180707E057E8003FDC
:1049900047E8001404B1F9E79E421DD0D8F818602A
:1049A000DEF80010B142F1D201226046D0E84F4F4C
:1049B000C0E8432F03B1F9E72306E7D1D8F8103058
:1049C00060460133C8F810300022D0E84F3FC0E8FD
:1049D000442F04B1F9E7D9E74FF217204FF217231C
:1049E000C0F20830EFF30582C0F200330230002A33
:1049F00008BF981C52460023FBF7B8FC286CC5F88A
:104A00003CA0CAF81C0001B0BDE8F08F2DE9F047CA
:104A100082B041F2E859C2F20009FA2041F21C6664
:104A200089F80000082004224946C2F20006002549
:104A300041F80C2F142206F15003C9E908604FF227
:104A40000300C9E90452C9E90663C0F20200042266
:104A5000142389F80250C9E90155C9F83050C9E951
:104A60000A550096FBF708FC304640F83C5F31469B
:104A700041F8280F304640F8141F306040F2805053
:104A8000C2F20000017840F20808002942F6814194
:104A9000C2F20008C0F60001C8F870104CD040F215
:104AA0000051C2F2000191F85F10490744D5D9F8CE
:104AB00004C041F2040A40F2EC0ECEF2000AC2F247
:104AC000000E00F1180307E053E8004F43E8001719
:104AD00007B1F9E7A5421AD08569DAF80010A942B2
:104AE000F2D201267246D2E84F7FC2E8446F04B189
:104AF000F9E73F06E8D107697246013707610026EA
:104B0000D2E84F4FC2E8476F07B1F9E7DCE7EFF3B0
:104B100005824FF60320C0F20030002A41F2E8522D
:104B200000F50020C2F20002634604BF4FF60320E6
:104B3000C0F20030FBF71AFC44F65D51C0F60001EC
:104B4000C8F84C900020C8F8501002B0BDE8F087BB
:104B500084B040F2805A41F204074FF60C28C2F2AA
:104B6000000A40F2EC068346CEF20007C0F20108CC
:104B70000DF10809C2F200060AF1180411E0EFF382
:104B8000058000284FF600204FF60022C0F20830C2
:104B9000C0F2003208BF10465A466FF00303FBF71D
:104BA000E5FB404659464A4600234FF0FF35009545
:104BB000FBF762FBEFF3058040B9EFF3108028B9F3
:104BC000EFF31180002800F0738000BF9AF8000016
:104BD000BBF1000F2ED00028E3D040F20050C2F20B
:104BE0000000C07F4007DCD508E000BF54E8002F7C
:104BF00044E8001303B1F9E79042C0D0DAF8180096
:104C000039688142F2D20125D6E84F2FC6E8435FCA
:104C100003B1F9E71206E9D1DAF8102000250132D4
:104C2000CAF81020D6E84F2FC6E8435F03B1F9E772
:104C3000DCE700BF00283FF4B4AF40F20050C2F2FE
:104C40000000C07F40077FF5ACAF07E054E8002FBD
:104C500044E8001303B1F9E790421AD0DAF81800DB
:104C600039688142F2D20125D6E84F2FC6E8435F6A
:104C700003B1F9E71206E9D1DAF810200025013274
:104C8000CAF81020D6E84F2FC6E8435F03B1F9E712
:104C9000DCE7EFF3058000284FF600204FF60022F6
:104CA000C0F20830C0F2003208BF1046002274E79C
:104CB00045F6117C5846C0F6000C494600224FF0DC
:104CC000FF3300DF00287FF46CAF9AF80000029AEF
:104CD000DDF80CC000283DD040F20050C2F20000C8
:104CE00090F85E00400609D434E000BF54E8003F6D
:104CF00044E8001505B1F9E79E451AD0DAF818E046
:104D000039687145F2D20120D6E84F3FC6E8450F19
:104D100005B1F9E71B06E9D1DAF8103000200133BC
:104D2000CAF81030D6E84F3FC6E8450F05B1F9E79D
:104D3000DCE7EFF3058000284FF20160C0F2083095
:104D4000634604BF4FF20160C0F20030FBF70EFB78
:104D5000DDE9022C6046904723E700002DE9F04F83
:104D600085B040F20805C2F200056E6C3EB13069B4
:104D7000696901380291306104D00298686105B018
:104D8000BDE8F08F41F2040840F2805940F2EC0A8D
:104D9000CEF20008C2F20009C2F2000A08E000BF29
:104DA000012070706E6C002EE7D030690028E4D1CD
:104DB000F06806F1180200281CBFB1688160D5F8C0
:104DC0004CB068644FF606200396C0F201005946C5
:104DD0000023002604920096FBF74EFAEFF30580BD
:104DE00040B9EFF3108028B9EFF31180002800F0EC
:104DF0006F8100BFBBF1000F00F088819BF80000BD
:104E0000FA2840F0BC810BF1200050E8006F16B981
:104E1000BFF32F8F04E0316840E8001202B1F4E7DD
:104E2000002E0BF10C0200F041800BF1100050E855
:104E3000001F4B1C40E8003404B1F8E799F800006B
:104E4000002800F08F8040F20050C2F2000090F87D
:104E50005E00C0070BD185E009F1180353E8004F4D
:104E600043E8001505B1F9E7A04200F06480D9F8E5
:104E70001800D8F800108142EED201255746D7E835
:104E80004F3FC7E8445F04B1F9E71B06E4D1D9F806
:104E9000103000250133C9F810305746D7E84F3F8E
:104EA000C7E8445F04B1F9E7D6E700BF99F800000E
:104EB000002800F0128240F20050C2F2000090F888
:104EC0005E00C0070AD19DE109F1180353E8004FC5
:104ED00043E8001505B1F9E7A0421DD0D9F8180044
:104EE000D8F800108142EFD201255746D7E84F3F4E
:104EF000C7E8445F04B1F9E71B06E5D1D9F81030E3
:104F000000250133C9F810305746D7E84F3FC7E8AE
:104F1000445F04B1F9E7D7E7EFF3058000284FF2CB
:104F200004004FF20403C0F20830C0F2003308BF9F
:104F3000184600230DE0EFF3058000284FF204002F
:104F40004FF20403C0F20830C0F2003308BF184625
:104F50003346FBF70BFA40F20805002EC2F20005BB
:104F600000F04B81049CDBF8242006F10C00214664
:104F7000FBF75EF9F920307000207080C6E9014B24
:104F8000B5F8540005F15601D1E85F2F904202D8E0
:104F9000BFF32F8F04E0531CC1E8543F04B1F3E783
:104FA00091B2814280F0258105F15801D1E85F2F4F
:104FB000531C984200D80023C1E8543F04B1F5E7E0
:104FC000E86D91B240F82160687A18B10120A872AA
:104FD00007E000BF4EF60450CEF200004FF08051C3
:104FE000016099F80000002843D040F20050C2F25E
:104FF000000090F85F0040070AD43AE009F1180277
:1050000052E8003F42E8001404B1F9E798421DD08D
:10501000D9F81800D8F800108142EFD20124564682
:10502000D6E84F2FC6E8434F03B1F9E71206E5D1A2
:10503000D9F8102000240132C9F810205646D6E8CD
:105040004F2FC6E8434F03B1F9E7D7E74FF60020EB
:10505000EFF30582C0F208300930002A4FF6002233
:10506000C0F2003208BF02F10900049B5A46FBF768
:105070007DF9039EF07801287FF492AE696C706927
:10508000F1B10B69984201D2002733E0CA68C01A17
:10509000BAB11369984227D3D168C01A39B30B69E2
:1050A000984226D3CA68C01A5AB1136998421BD3D2
:1050B000D168C01AD9B10B6917469842E6D219E0F7
:1050C00000210022B160C6E90320E9B1CE6069E6A3
:1050D00046F24D7C5846C0F6000C0499002200238D
:1050E00000DF0028C5D0F8E00F46114602E0114667
:1050F000E7E7174630610A69B760101AF160086186
:105100008E6039460029E1D16E644EE699F80000C0
:10511000002800F0E28040F20050C2F20000C07FA0
:10512000400740F1DA8040F2EC00C2F200000122B8
:10513000002409F1180508E055E8003F45E800168D
:1051400006B1F9E79F4200F0A380D9F81870D8F8AB
:105150000010B942F0D2D0E84F6FC0E8432F03B13E
:10516000F9E73306E8D1D9F810300133C9F8103027
:10517000D0E84F3FC0E8464F06B1F9E7DCE799F8C1
:105180000000002800F0A98040F20050C2F20000A8
:10519000C07F400740F1A18040F2EC00C2F2000065
:1051A0000124002709F1180509E000BF55E8002F88
:1051B00045E8001303B1F9E7964200F07880D9F88A
:1051C0001860D8F80010B142F0D2D0E84F3FC0E8E4
:1051D000424F02B1F9E71A06E8D1D9F8102001329E
:1051E000C9F81020D0E84F2FC0E8437F03B1F9E79A
:1051F000DCE702203146FDF71FFC99F8000000288B
:1052000000F06B8040F20050C2F2000090F85F00A6
:10521000400740F1628040F2EC00C2F2000001223F
:10522000002709F1180507E055E8003F45E800149C
:1052300004B1F9E79E4219D0D9F81860D8F80010E7
:10524000B142F1D2D0E84F4FC0E8432F03B1F9E7A4
:105250002306E9D1D9F810300133C9F81030D0E86D
:105260004F3FC0E8447F04B1F9E7DDE74FF6002087
:10527000EFF30582C0F208300B30002A4FF600220F
:10528000C0F2003208BF02F10B00049B5A461EE038
:10529000EFF3058000284FF600204FF60022C0F201
:1052A0000830C0F2003208BF104600220DE0EFF3D4
:1052B000058000284FF600204FF60022C0F208308B
:1052C000C0F2003208BF10465A466FF00303FBF7E6
:1052D0004DF840F20805C2F20005A869039968611B
:1052E0000320FDF7A9FB000040F28054C2F2000445
:1052F000207840F200580028C2F2000843D098F805
:105300003E0040073FD541F2040E40F2EC0CCEF2D5
:10531000000EC2F2000C04F1180707E057E8003F46
:1053200047E8001606B1F9E79D421AD0A569DEF8F4
:105330000010A942F2D201226046D0E84F6FC0E8C7
:10534000432F03B1F9E73306E8D1236960460133FF
:1053500023610022D0E84F3FC0E8462F06B1F9E7AD
:10536000DCE74FF200234FF21A20EFF30582C0F280
:105370000033C0F20830002A08BF03F11A000022EF
:105380000023FAF7F3FF49F2852CC0F6000C00DF8A
:105390002078002846D098F81E00400742D541F2F8
:1053A000040E40F2EC0CCEF2000EC2F2000C04F13E
:1053B000180607E056E8003F46E8001505B1F9E792
:1053C0009F421AD0A769DEF80010B942F2D201223A
:1053D0006046D0E84F5FC0E8432F03B1F9E72B06E2
:1053E000E8D123696046013323610022D0E84F3FB2
:1053F000C0E8452F05B1F9E7DCE74FF20020EFF3F5
:105400000582C0F2003000F50020002A4FF00002B3
:105410004FF0FF3304BF4FF20020C0F20030FAF724
:10542000A5FF00BFFEE700002DE9F04140F28054E7
:10543000C2F20004207840F200580028C2F20008AE
:1054400043D098F83E0040073FD541F2040E40F2A9
:10545000EC0CCEF2000EC2F2000C04F1180707E0CB
:1054600057E8003F47E8001606B1F9E79D421AD019
:10547000A569DEF80010A942F2D201226046D0E808
:105480004F6FC0E8432F03B1F9E73306E8D1236932
:105490006046013323610022D0E84F3FC0E8462F29
:1054A00006B1F9E7DCE74FF200234FF20C20EFF3EF
:1054B0000582C0F20033C0F20830002A08BF03F1B1
:1054C0000C0000220023FAF751FFEFF3058030B9FA
:1054D000EFF3108018B9EFF3118000284CD020783A
:1054E00000284ED098F81E00400758BFBDE8F08154
:1054F00041F2040E40F2EC0CCEF2000EC2F2000CAF
:1055000004F1180608E000BF56E8003F46E8001521
:1055100005B1F9E79F421AD0A769DEF80010B94239
:10552000F2D201226046D0E84F5FC0E8432F03B1BA
:10553000F9E72B06E8D12369604601332361002295
:10554000D0E84F3FC0E8452F05B1F9E7DCE74FF25F
:105550000020C0F20030EFF3058200F50020002AA1
:1055600004BF4FF20020C0F2003000226FF00503AC
:10557000BDE8F041FAF7FABE4AF27D4CC0F6000CE5
:1055800000DFBDE8F08100002DE9F041B8B18046B0
:1055900013204146FEF75EFB40F28052C2F2000249
:1055A0001178E8B141B140F20050C2F2000090F829
:1055B0005E00000700F164800020BDE8F08140F249
:1055C0008050C2F20000017831B140F20051C2F2C5
:1055D0000001897F090710D46FF00300BDE8F08156
:1055E00039B140F20050C2F20000807F000700F1A4
:1055F00077804FF0FF30BDE8F08141F2040E40F2B9
:10560000EC0CCEF2000EC2F2000C00F1180607E01E
:1056100056E8004F46E8001505B1F9E7A7421AD051
:105620008769DEF80010B942F2D201236246D2E85F
:105630004F5FC2E8443F04B1F9E72D06E8D10569A0
:105640006246013505610023D2E84F4FC2E8453F6D
:1056500005B1F9E7DCE74FF20030EFF30582C0F265
:10566000003000F50020002A6FF003024FF0000325
:105670006FF0030404BF4FF20030C0F2003082E04C
:1056800041F2040E40F2EC0CCEF2000EC2F2000C1D
:1056900002F1180709E000BF57E8003F47E800158E
:1056A00005B1F9E79E4200F04A809669DEF80010E5
:1056B000B142F1D260460124D0E84F5FC0E8434FC9
:1056C00003B1F9E72B06E7D1136960460133136193
:1056D0000024D0E84F3FC0E8454F05B1F9E7DBE7CC
:1056E00041F2040E40F2EC0CCEF2000EC2F2000CBD
:1056F00002F1180608E000BF56E8004F46E8001522
:1057000005B1F9E7A7422BD09769DEF80010B9423E
:10571000F2D201236046D0E84F5FC0E8443F04B1B5
:10572000F9E72D06E8D115696046013515610023BA
:10573000D0E84F4FC0E8453F05B1F9E7DCE74FF24D
:1057400000334FF20330EFF30582C0F20033C0F2B2
:105750000830002A08BFD81C42460023002412E06B
:105760004FF20030C0F20030EFF3058200F5002068
:10577000002A04BF4FF20030C0F200304FF0FF3279
:1057800000234FF0FF34FAF7F1FD2046BDE8F08129
:105790002DE9F04140F2805040F20801C2F20000D1
:1057A000C2F20001027891F80880002A48D040F245
:1057B0000051C2F2000191F83E10890740D541F234
:1057C000040E40F2EC0CCEF2000EC2F2000C00F11E
:1057D000180707E057E8004F47E8001505B1F9E75B
:1057E000A6421AD08669DEF80010B142F2D2012337
:1057F0006246D2E84F4FC2E8453F05B1F9E72506BA
:10580000E8D105696246013505610023D2E84F4FB2
:10581000C2E8453F05B1F9E7DCE74FF20610EFF3C8
:105820000582C0F2003000F50020002A42464FF009
:10583000000304BF4FF20610C0F20030FAF796FDE5
:105840004046BDE8F0810000F0B581B040F20806A6
:10585000C2F20006307A90B101286BD140F280503C
:10586000C2F200000178002975D040F20051C2F266
:10587000000191F85E10890772D400243CE140F2E7
:10588000A850C2F20000052140F2E855F065102052
:105890003164C2F200054FF48051C5E9001005F6ED
:1058A000F871A6F85400A9600024C5F8FC0F4FF465
:1058B0003C3029464FF480520123C5F8F84FEC6084
:1058C00000940127FAF7D8FC4FF43C300021002265
:1058D0000023C6F880500094FAF7CEFCD6F880007A
:1058E000002170674FF43C30002200230094FAF747
:1058F000C3FCD6F880000021B0674FF43C30002292
:1059000000230094FAF7B8FC40F28050C2F2000085
:105910000278D6F88010002AF167377200F0EC8028
:1059200040F20051C2F2000191F85E10890747D49D
:105930000024E1E040F28050C2F20000017861B141
:1059400040F20051C2F20001897F890700F16880AE
:105950004FF0FF34D0E00024CEE04FF0FF34CBE036
:1059600041F2040E40F2EC0CCEF2000EC2F2000C3A
:1059700000F1180609E000BF56E8004F46E80015A0
:1059800005B1F9E7A74200F07A808769DEF80010D8
:10599000B942F1D201236246D2E84F5FC2E8443FE8
:1059A00004B1F9E72D06E7D10569624601350561C5
:1059B0000023D2E84F4FC2E8453F05B1F9E7DBE7E6
:1059C00041F2040E40F2EC0CCEF2000EC2F2000CDA
:1059D00000F1180609E000BF56E8004F46E8001540
:1059E00005B1F9E7A74200F05E808769DEF8001094
:1059F000B942F1D201236246D2E84F5FC2E8443F88
:105A000004B1F9E72D06E7D1056962460135056164
:105A10000023D2E84F4FC2E8453F05B1F9E7DBE785
:105A200041F2040E40F2EC0CCEF2000EC2F2000C79
:105A300000F1180608E000BF56E8004F46E80015E0
:105A400005B1F9E7A74242D08769DEF80010B942F4
:105A5000F2D201236246D2E84F5FC2E8443F04B16C
:105A6000F9E72D06E8D10569624601350561002395
:105A7000D2E84F4FC2E8453F05B1F9E7DCE7EFF365
:105A800005824FF20210C0F20830002A4FF00002E7
:105A90004FF0000304BF4FF20210C0F200300024A8
:105AA000FAF764FC28E0EFF305824FF20210C0F22F
:105AB0000830002A4FF000024FF0000304BF4FF2FD
:105AC0000210C0F200300024FAF750FC14E04FF24C
:105AD00002134FF6FE70C0F20033C0F20700EFF37E
